02RETORNO01COBRANCA       00000000000001234567Cobranca Ada                  237BRADESCO       1710220160000002137                                                                                                                                                                                                                                                                          181022         000001
1020244601800014700000090275100014370                         0000000002237024133P000000000000000000000000090603102200000000040000000002237024133P101022000000005250000100127  000000000000000000000000000000000000000000000000000000000000000000000000006500000000004600000000000000000000000000000   041022             00000000000000                                                                  000002
1020244601800014700000090275100014370                         000000000223702413640000000000000000000000000906031022000000005700000000022370241364101022000000004500034107641  000000000000000000000000000000000000000000000000000000000000000000000000006500000000003850000000000000000000000000000   041022             00000000000000                                                                  000003
1020244601800014700000090275100014370                         000000000223702413720000000000000000000000000906031022000000013200000000022370241372101022000000004500034106289  000000000000000000000000000000000000000000000000000000000000000000000000006500000000003850000000000000000000000000000   041022             00000000000000                                                                  000004
1020244601800014700000090275100014370                         000000000223702415180000000000000000000000000906031022000000312300000000022370241518101022000000004500003302242  000000000000000000000000000000000000000000000000000000000000000000000000006500000000003850000000000000000000000000000   041022             00000000000000                                                                  000005
1020244601800014700000090275100014370                         000000000223702415260000000000000000000000000906031022000000313200000000022370241526101022000000003750021200001  000000000000000000000000000000000000000000000000000000000000000000000000004000000000003350000000000000000000000000000   041022             00000000000000                                                                  000006
1020244601800014700000090275100014370                         000000000223702415340000000000000000000000000906031022000000323200000000022370241534101022000000005250021200001  000000000000000000000000000000000000000000000000000000000000000000000000006500000000004600000000000000000000000000000   041022             00000000000000                                                                  000007
1020244601800014700000090275100014370                         000000000223702416230000000000000000000000000906031022000000541200000000022370241623101022000000003750021200001  000000000000000000000000000000000000000000000000000000000000000000000000004000000000003350000000000000000000000000000   041022             00000000000000                                                                  000008
1020244601800014700000090275100014370                         000000000223702416660000000000000000000000000906031022000000565600000000022370241666101022000000004500003301528  000000000000000000000000000000000000000000000000000000000000000000000000006500000000003850000000000000000000000000000   041022             00000000000000                                                                  000009
1020244601800014700000090275100014370                         000000000223702417630000000000000000000000000906031022000000841500000000022370241763101022000000004500023706690  000000000000000000000000000000000000000000000000000000000000000000000000006500000000003850000000000000000000000000000   041022             00000000000000                                                                  000010
1020244601800014700000090275100014370                         000000000223702419410000000000000000000000000906031022000003651100000000022370241941101022000000004500003300976  000000000000000000000000000000000000000000000000000000000000000000000000006500000000003850000000000000000000000000000   041022             00000000000000                                                                  000011
1020244601800014700000090275100014370                         000000000223702419680000000000000000000000000906031022000004655600000000022370241968101022000000005250000103090  000000000000000000000000000000000000000000000000000000000000000000000000006500000000004600000000000000000000000000000   041022             00000000000000                                                                  000012
1020244601800014700000090275100014370                         000000000223702419760000000000000000000000000906031022000005132100000000022370241976101022000000004500010401024  000000000000000000000000000000000000000000000000000000000000000000000000006500000000003850000000000000000000000000000   041022             00000000000000                                                                  000013
1020244601800014700000090275100014370                         000000000223702419920000000000000000000000000906031022000005421200000000022370241992101022000000004500003300976  000000000000000000000000000000000000000000000000000000000000000000000000006500000000003850000000000000000000000000000   041022             00000000000000                                                                  000014
1020244601800014700000090275100014370                         000000000223702421070000000000000000000000000906031022000006131500000000022370242107101022000000005250026000001  000000000000000000000000000000000000000000000000000000000000000000000000006500000000004600000000000000000000000000000   041022             00000000000000                                                                  000015
1020244601800014700000090275100014370                         000000000223702421230000000000000000000000000906031022000006152100000000022370242123101022000000003750003301534  000000000000000000000000000000000000000000000000000000000000000000000000004000000000003350000000000000000000000000000   041022             00000000000000                                                                  000016
1020244601800014700000090275100014370                         000000000223702421740000000000000000000000000906031022000006313200000000022370242174101022000000005250003302242  000000000000000000000000000000000000000000000000000000000000000000000000006500000000004600000000000000000000000000000   041022             00000000000000                                                                  000017
1020244601800014700000090275100014370                         000000000223702421820000000000000000000000000906031022000006415200000000022370242182101022000000004500034104878  000000000000000000000000000000000000000000000000000000000000000000000000006500000000003850000000000000000000000000000   041022             00000000000000                                                                  000018
1020244601800014700000090275100014370                         000000000223702422470000000000000000000000000906031022000006516200000000022370242247101022000000004500021200001  000000000000000000000000000000000000000000000000000000000000000000000000006500000000003850000000000000000000000000000   041022             00000000000000                                                                  000019
1020244601800014700000090275100014370                         000000000223702425220000000000000000000000000906031022000018008100000000022370242522101022000000004500000103992  000000000000000000000000000000000000000000000000000000000000000000000000006500000000003850000000000000000000000000000   041022             00000000000000                                                                  000020
1020244601800014700000090275100014370                         000000000223702427780000000000000000000000000906031022000018016500000000022370242778101022000000005250003301530  000000000000000000000000000000000000000000000000000000000000000000000000006500000000004600000000000000000000000000000   041022             00000000000000                                                                  000021
1020244601800014700000090275100014370                         000000000223702427860000000000000000000000000906031022000018016600000000022370242786101022000000005250000103992  000000000000000000000000000000000000000000000000000000000000000000000000006500000000004600000000000000000000000000000   041022             00000000000000                                                                  000022
1020244601800014700000090275100014370                         0000000002237024293P000000000000000000000000090603102200001802070000000002237024293P101022000000004500021200001  000000000000000000000000000000000000000000000000000000000000000000000000006500000000003850000000000000000000000000000   041022             00000000000000                                                                  000023
1020244601800014700000090275100014370                         000000000223702429560000000000000000000000000906031022000018022300000000022370242956101022000000005250003303302  000000000000000000000000000000000000000000000000000000000000000000000000006500000000004600000000000000000000000000000   041022             00000000000000                                                                  000024
1020244601800014700000090275100014370                         000000000223702429720000000000000000000000000906031022000018023100000000022370242972101022000000005250034109237  000000000000000000000000000000000000000000000000000000000000000000000000006500000000004600000000000000000000000000000   041022             00000000000000                                                                  000025
1020244601800014700000090275100014370                         000000000223702430060000000000000000000000000906031022000018023700000000022370243006101022000000005250034106160  000000000000000000000000000000000000000000000000000000000000000000000000006500000000004600000000000000000000000000000   041022             00000000000000                                                                  000026
1020244601800014700000090275100014370                         000000000223702430570000000000000000000000000906031022000018024300000000022370243057101022000000005250003300976  000000000000000000000000000000000000000000000000000000000000000000000000006500000000004600000000000000000000000000000   041022             00000000000000                                                                  000027
1020244601800014700000090275100014370                         000000000223702430730000000000000000000000000906031022000018024600000000022370243073101022000000005250000103992  000000000000000000000000000000000000000000000000000000000000000000000000006500000000004600000000000000000000000000000   041022             00000000000000                                                                  000028
1020244601800014700000090275100014370                         0000000002237024309P000000000000000000000000090603102200001802520000000002237024309P101022000000005250034107304  000000000000000000000000000000000000000000000000000000000000000000000000006500000000004600000000000000000000000000000   041022             00000000000000                                                                  000029
1020244601800014700000090275100014370                         000000000223702433670000000000000000000000000906031022000019002000000000022370243367101022000000004500023700448  000000000000000000000000000000000000000000000000000000000000000000000000006500000000003850000000000000000000000000000   041022             00000000000000                                                                  000030
1020244601800014700000090275100014370                         000000000223702434050000000000000000000000000906031022000019002400000000022370243405101022000000004500003301682  000000000000000000000000000000000000000000000000000000000000000000000000006500000000003850000000000000000000000000000   041022             00000000000000                                                                  000031
1020244601800014700000090275100014370                         000000000223702434210000000000000000000000000906031022000019003100000000022370243421101022000000004500003303385  000000000000000000000000000000000000000000000000000000000000000000000000006500000000003850000000000000000000000000000   041022             00000000000000                                                                  000032
1020244601800014700000090275100014370                         000000000223702434800000000000000000000000000906031022000019004000000000022370243480101022000000005250034102927  000000000000000000000000000000000000000000000000000000000000000000000000006500000000004600000000000000000000000000000   041022             00000000000000                                                                  000033
1020244601800014700000090275100014370                         000000000223702434990000000000000000000000000906031022000019004300000000022370243499101022000000005250003301682  000000000000000000000000000000000000000000000000000000000000000000000000006500000000004600000000000000000000000000000   041022             00000000000000                                                                  000034
1020244601800014700000090275100014370                         000000000223702435290000000000000000000000000906031022000019006300000000022370243529101022000000004500034102927  000000000000000000000000000000000000000000000000000000000000000000000000006500000000003850000000000000000000000000000   041022             00000000000000                                                                  000035
1020244601800014700000090275100014370                         000000000223702436770000000000000000000000000906031022000019011300000000022370243677101022000000004500003301530  000000000000000000000000000000000000000000000000000000000000000000000000006500000000003850000000000000000000000000000   041022             00000000000000                                                                  000036
1020244601800014700000090275100014370                         000000000223702436850000000000000000000000000906031022000019011400000000022370243685101022000000004500003301530  000000000000000000000000000000000000000000000000000000000000000000000000006500000000003850000000000000000000000000000   041022             00000000000000                                                                  000037
1020244601800014700000090275100014370                         000000000223702437150000000000000000000000000906031022000019012600000000022370243715101022000000005250000105785  000000000000000000000000000000000000000000000000000000000000000000000000006500000000004600000000000000000000000000000   041022             00000000000000                                                                  000038
1020244601800014700000090275100014370                         000000000223702437660000000000000000000000000906031022000019014800000000022370243766101022000000005250026000001  000000000000000000000000000000000000000000000000000000000000000000000000006500000000004600000000000000000000000000000   041022             00000000000000                                                                  000039
1020244601800014700000090275100014370                         000000000223702440100000000000000000000000000906031022000052659800000000022370244010101022000000005250026000001  000000000000000000000000000000000000000000000000000000000000000000000000006500000000004600000000000000000000000000000   041022             00000000000000                                                                  000040
1020244601800014700000090275100014370                         000000000223702440960000000000000000000000000906031022000061213200000000022370244096101022000000004500010400205  000000000000000000000000000000000000000000000000000000000000000000000000011500000000003350000000000000000000000000000   041022             00000000000000                                                                  000041
1020244601800014700000090275100014370                         0000000002237024424P000000000000000000000000090603102200006513230000000002237024424P101022000000004500023702751  000000000000000000000000000000000000000000000000000000000000000000000000006500000000003850000000000000000000000000000   041022             00000000000000                                                                  000042
1020244601800014700000090275100014370                         000000000223702442580000000000000000000000000906031022000065151500000000022370244258101022000000004500034105577  000000000000000000000000000000000000000000000000000000000000000000000000006500000000003850000000000000000000000000000   041022             00000000000000                                                                  000043
1020244601800014700000090275100014370                         000000000223702443040000000000000000000000000906031022000065215800000000022370244304101022000000004500003301072  000000000000000000000000000000000000000000000000000000000000000000000000006500000000003850000000000000000000000000000   041022             00000000000000                                                                  000044
1020244601800014700000090275100014370                         000000000223702443550000000000000000000000000906031022000066513200000000022370244355101022000000005250023701453  000000000000000000000000000000000000000000000000000000000000000000000000006500000000004600000000000000000000000000000   041022             00000000000000                                                                  000045
1020244601800014700000090275100014370                         000000000223702443980000000000000000000000000906031022000089489400000000022370244398101022000000004500003301072  000000000000000000000000000000000000000000000000000000000000000000000000006500000000003850000000000000000000000000000   041022             00000000000000                                                                  000046
1020244601800014700000090275100014370                         0000000002237024441P000000000000000000000000090603102200009661230000000002237024441P101022000000003750003303668  000000000000000000000000000000000000000000000000000000000000000000000000004000000000003350000000000000000000000000000   041022             00000000000000                                                                  000047
1020244601800014700000090275100014370                         000000000223702412910000000000000000000000000906041022000018017400000000022370241291111022000000005250034106124  000000000000000000000000000000000000000000000000000000000000000000000000006500000000004600000000000000000000000000000   051022             00000000000000                                                                  000048
1020244601800014700000090275100014370                         0000000002237024164P000000000000000000000000090604102200000056230000000002237024164P101022000000004500003301670  000000000000000000000000000000000000000000000000000000000000000000000000006500000000003850000000000000000000000000000   051022             00000000000000                                                                  000049
1020244601800014700000090275100014370                         000000000223702417980000000000000000000000000906041022000000946100000000022370241798101022000000004500003302284  000000000000000000000000000000000000000000000000000000000000000000000000006500000000003850000000000000000000000000000   051022             00000000000000                                                                  000050
1020244601800014700000090275100014370                         0000000002237024181P000000000000000000000000090604102200000131320000000002237024181P101022000000004125003302247  000000000000000000000000000000000000000000000000000000000000000000000000004400000000003685000000000000000000000000000   051022             00000000000000                                                                  000051
1020244601800014700000090275100014370                         000000000223702420260000000000000000000000000906041022000005632500000000022370242026101022000000004500026000001  000000000000000000000000000000000000000000000000000000000000000000000000006500000000003850000000000000000000000000000   051022             00000000000000                                                                  000052
1020244601800014700000090275100014370                         000000000223702426460000000000000000000000000906041022000018010500000000022370242646101022000000004500003303871  000000000000000000000000000000000000000000000000000000000000000000000000006500000000003850000000000000000000000000000   051022             00000000000000                                                                  000053
1020244601800014700000090275100014370                         000000000223702428590000000000000000000000000906041022000018018100000000022370242859101022000000005250034104814  000000000000000000000000000000000000000000000000000000000000000000000000006500000000004600000000000000000000000000000   051022             00000000000000                                                                  000054
1020244601800014700000090275100014370                         000000000223702428670000000000000000000000000906041022000018018300000000022370242867101022000000005250003300924  000000000000000000000000000000000000000000000000000000000000000000000000006500000000004600000000000000000000000000000   051022             00000000000000                                                                  000055
1020244601800014700000090275100014370                         000000000223702433320000000000000000000000000906041022000019001600000000022370243332101022000000004500003302287  000000000000000000000000000000000000000000000000000000000000000000000000006500000000003850000000000000000000000000000   051022             00000000000000                                                                  000056
1020244601800014700000090275100014370                         000000000223702433400000000000000000000000000906041022000019001700000000022370243340101022000000004500007700001  000000000000000000000000000000000000000000000000000000000000000000000000006500000000003850000000000000000000000000000   051022             00000000000000                                                                  000057
1020244601800014700000090275100014370                         000000000223702434720000000000000000000000000906041022000019003900000000022370243472101022000000004500034107450  000000000000000000000000000000000000000000000000000000000000000000000000006500000000003850000000000000000000000000000   051022             00000000000000                                                                  000058
1020244601800014700000090275100014370                         000000000223702436180000000000000000000000000906041022000019009000000000022370243618101022000000005250034100713  000000000000000000000000000000000000000000000000000000000000000000000000006500000000004600000000000000000000000000000   051022             00000000000000                                                                  000059
1020244601800014700000090275100014370                         000000000223702436930000000000000000000000000906041022000019011500000000022370243693101022000000005250065500001  000000000000000000000000000000000000000000000000000000000000000000000000006500000000004600000000000000000000000000000   051022             00000000000000                                                                  000060
1020244601800014700000090275100014370                         000000000223702437740000000000000000000000000906041022000020022300000000022370243774101022000000003750033600001  000000000000000000000000000000000000000000000000000000000000000000000000004000000000003350000000000000000000000000000   051022             00000000000000                                                                  000061
1020244601800014700000090275100014370                         000000000223702438040000000000000000000000000906041022000022225300000000022370243804101022000000004500003303350  000000000000000000000000000000000000000000000000000000000000000000000000006500000000003850000000000000000000000000000   051022             00000000000000                                                                  000062
1020244601800014700000090275100014370                         000000000223702438550000000000000000000000000906041022000026322300000000022370243855101022000000004500003301526  000000000000000000000000000000000000000000000000000000000000000000000000006500000000003850000000000000000000000000000   051022             00000000000000                                                                  000063
1020244601800014700000090275100014370                         000000000223702439280000000000000000000000000906041022000032651300000000022370243928101022000000003750010404087  000000000000000000000000000000000000000000000000000000000000000000000000004000000000003350000000000000000000000000000   051022             00000000000000                                                                  000064
1020244601800014700000090275100014370                         000000000223702439520000000000000000000000000906041022000045615600000000022370243952101022000000003750034107759  000000000000000000000000000000000000000000000000000000000000000000000000004000000000003350000000000000000000000000000   051022             00000000000000                                                                  000065
1020244601800014700000090275100014370                         000000000223702441770000000000000000000000000906041022000064648500000000022370244177101022000000004500034107641  000000000000000000000000000000000000000000000000000000000000000000000000006500000000003850000000000000000000000000000   051022             00000000000000                                                                  000066
1020244601800014700000090275100014370                         000000000223702442230000000000000000000000000906041022000065123100000000022370244223101022000000003750026000001  000000000000000000000000000000000000000000000000000000000000000000000000004000000000003350000000000000000000000000000   051022             00000000000000                                                                  000067
1020244601800014700000090275100014370                         000000000223702443390000000000000000000000000906041022000065435100000000022370244339101022000000004909034105577  000000000000000000000000000000000000000000000000000000000000000000000000007090000000004200000000000000000000000000000   051022             00000000000000                                                                  000068
1020244601800014700000090275100014370                         000000000223702444280000000000000000000000000906041022000098461400000000022370244428101022000000003750021200001  000000000000000000000000000000000000000000000000000000000000000000000000004000000000003350000000000000000000000000000   051022             00000000000000                                                                  000069
1020244601800014700000090275100014370                         000000000223702445250000000000000000000000000906041022000099996600000000022370244525101022000000004500034106457  000000000000000000000000000000000000000000000000000000000000000000000000006500000000003850000000000000000000000000000   051022             00000000000000                                                                  000070
1020244601800014700000090275100014370                         0000000002237023550P000000000000000000000000090605102200000040930000000002237023550P100922000000005250021200001  000000000000000000000000000000000000000000000000000000000000000000000000000000000000005397500000000014750000000000000   061022             00000000000000                                                                  000071
1020244601800014700000090275100014370                         000000000223702413990000000000000000000000000906051022000000051100000000022370241399101022000000004500003301072  000000000000000000000000000000000000000000000000000000000000000000000000006500000000003850000000000000000000000000000   061022             00000000000000                                                                  000072
1020244601800014700000090275100014370                         000000000223702414020000000000000000000000000906051022000000056300000000022370241402101022000000003750023702359  000000000000000000000000000000000000000000000000000000000000000000000000004000000000003350000000000000000000000000000   061022             00000000000000                                                                  000073
1020244601800014700000090275100014370                         000000000223702414290000000000000000000000000906051022000000064500000000022370241429101022000000005250033600001  000000000000000000000000000000000000000000000000000000000000000000000000006500000000004600000000000000000000000000000   061022             00000000000000                                                                  000074
1020244601800014700000090275100014370                         000000000223702414370000000000000000000000000906051022000000065600000000022370241437101022000000005250023706728  000000000000000000000000000000000000000000000000000000000000000000000000006500000000004600000000000000000000000000000   061022             00000000000000                                                                  000075
1020244601800014700000090275100014370                         000000000223702414530000000000000000000000000906051022000000099500000000022370241453101022000000003750023702379  000000000000000000000000000000000000000000000000000000000000000000000000004000000000003350000000000000000000000000000   061022             00000000000000                                                                  000076
1020244601800014700000090275100014370                         0000000002237024147P000000000000000000000000090605102200000013220000000002237024147P101022000000004500023701803  000000000000000000000000000000000000000000000000000000000000000000000000006500000000003850000000000000000000000000000   061022             00000000000000                                                                  000077
1020244601800014700000090275100014370                         000000000223702416070000000000000000000000000906051022000000484800000000022370241607101022000000004500034100540  000000000000000000000000000000000000000000000000000000000000000000000000006500000000003850000000000000000000000000000   061022             00000000000000                                                                  000078
1020244601800014700000090275100014370                         000000000223702416150000000000000000000000000906051022000000511500000000022370241615101022000000004500023702580  000000000000000000000000000000000000000000000000000000000000000000000000006500000000003850000000000000000000000000000   061022             00000000000000                                                                  000079
1020244601800014700000090275100014370                         000000000223702416740000000000000000000000000906051022000000566200000000022370241674101022000000004500034106250  000000000000000000000000000000000000000000000000000000000000000000000000006500000000003850000000000000000000000000000   061022             00000000000000                                                                  000080
1020244601800014700000090275100014370                         000000000223702417040000000000000000000000000906051022000000613200000000022370241704101022000000005250034108202  000000000000000000000000000000000000000000000000000000000000000000000000006500000000004600000000000000000000000000000   061022             00000000000000                                                                  000081
1020244601800014700000090275100014370                         000000000223702417200000000000000000000000000906051022000000641600000000022370241720101022000000003750063400019  000000000000000000000000000000000000000000000000000000000000000000000000004000000000003350000000000000000000000000000   061022             00000000000000                                                                  000082
1020244601800014700000090275100014370                         000000000223702417390000000000000000000000000906051022000000646500000000022370241739101022000000004090923703431  000000000000000000000000000000000000000000000000000000000000000000000000004363000000003654600000000000000000000000000   061022             00000000000000                                                                  000083
1020244601800014700000090275100014370                         000000000223702418440000000000000000000000000906051022000001646500000000022370241844101022000000004909023706728  000000000000000000000000000000000000000000000000000000000000000000000000006500000000004259000000000000000000000000000   061022             00000000000000                                                                  000084
1020244601800014700000090275100014370                         000000000223702418870000000000000000000000000906051022000002615300000000022370241887101022000000003750034100283  000000000000000000000000000000000000000000000000000000000000000000000000004000000000003350000000000000000000000000000   061022             00000000000000                                                                  000085
1020244601800014700000090275100014370                         0000000002237024195P000000000000000000000000090605102200000451510000000002237024195P101022000000004500065500001  000000000000000000000000000000000000000000000000000000000000000000000000006500000000003850000000000000000000000000000   061022             00000000000000                                                                  000086
1020244601800014700000090275100014370                         000000000223702419840000000000000000000000000906051022000005165600000000022370241984101022000000005250034107722  000000000000000000000000000000000000000000000000000000000000000000000000006500000000004600000000000000000000000000000   061022             00000000000000                                                                  000087
1020244601800014700000090275100014370                         0000000002237024200P000000000000000000000000090605102200000545610000000002237024200P101022000000004500026000001  000000000000000000000000000000000000000000000000000000000000000000000000006500000000003850000000000000000000000000000   061022             00000000000000                                                                  000088
1020244601800014700000090275100014370                         000000000223702420180000000000000000000000000906051022000005616500000000022370242018101022000000004500034108468  000000000000000000000000000000000000000000000000000000000000000000000000004800000000004020000000000000000000000000000   061022             00000000000000                                                                  000089
1020244601800014700000090275100014370                         000000000223702420500000000000000000000000000906051022000006121600000000022370242050101022000000003750063300001  000000000000000000000000000000000000000000000000000000000000000000000000004000000000003350000000000000000000000000000   061022             00000000000000                                                                  000090
1020244601800014700000090275100014370                         000000000223702421310000000000000000000000000906051022000006156100000000022370242131101022000000004500034106143  000000000000000000000000000000000000000000000000000000000000000000000000006500000000003850000000000000000000000000000   061022             00000000000000                                                                  000091
1020244601800014700000090275100014370                         000000000223702422040000000000000000000000000906051022000006512600000000022370242204101022000000003750063300001  000000000000000000000000000000000000000000000000000000000000000000000000004000000000003350000000000000000000000000000   061022             00000000000000                                                                  000092
1020244601800014700000090275100014370                         000000000223702422390000000000000000000000000906051022000006516100000000022370242239101022000000004500034105577  000000000000000000000000000000000000000000000000000000000000000000000000006500000000003850000000000000000000000000000   061022             00000000000000                                                                  000093
1020244601800014700000090275100014370                         000000000223702422630000000000000000000000000906051022000006545100000000022370242263101022000000004500034100023  000000000000000000000000000000000000000000000000000000000000000000000000006500000000003850000000000000000000000000000   061022             00000000000000                                                                  000094
1020244601800014700000090275100014370                         0000000002237024228P000000000000000000000000090605102200000662320000000002237024228P101022000000003750003300976  000000000000000000000000000000000000000000000000000000000000000000000000004000000000003350000000000000000000000000000   061022             00000000000000                                                                  000095
1020244601800014700000090275100014370                         000000000223702423010000000000000000000000000906051022000006846500000000022370242301101022000000003750063300001  000000000000000000000000000000000000000000000000000000000000000000000000004000000000003350000000000000000000000000000   061022             00000000000000                                                                  000096
1020244601800014700000090275100014370                         000000000223702423280000000000000000000000000906051022000010000300000000022370242328101022000000003750023701803  000000000000000000000000000000000000000000000000000000000000000000000000004000000000003350000000000000000000000000000   061022             00000000000000                                                                  000097
1020244601800014700000090275100014370                         000000000223702423360000000000000000000000000906051022000010007700000000022370242336101022000000005250034104175  000000000000000000000000000000000000000000000000000000000000000000000000006500000000004600000000000000000000000000000   061022             00000000000000                                                                  000098
1020244601800014700000090275100014370                         000000000223702423520000000000000000000000000906051022000010220200000000022370242352101022000000004500034100496  000000000000000000000000000000000000000000000000000000000000000000000000006500000000003850000000000000000000000000000   061022             00000000000000                                                                  000099
1020244601800014700000090275100014370                         000000000223702423600000000000000000000000000906051022000010320000000000022370242360101022000000005250023700552  000000000000000000000000000000000000000000000000000000000000000000000000006500000000004600000000000000000000000000000   061022             00000000000000                                                                  000100
1020244601800014700000090275100014370                         000000000223702423950000000000000000000000000906051022000012265100000000022370242395101022000000003750023702580  000000000000000000000000000000000000000000000000000000000000000000000000004000000000003350000000000000000000000000000   061022             00000000000000                                                                  000101
1020244601800014700000090275100014370                         000000000223702424330000000000000000000000000906051022000018002400000000022370242433101022000000004500034107499  000000000000000000000000000000000000000000000000000000000000000000000000006500000000003850000000000000000000000000000   061022             00000000000000                                                                  000102
1020244601800014700000090275100014370                         000000000223702424410000000000000000000000000906051022000018002600000000022370242441101022000000004500003303386  000000000000000000000000000000000000000000000000000000000000000000000000006500000000003850000000000000000000000000000   061022             00000000000000                                                                  000103
1020244601800014700000090275100014370                         0000000002237024245P000000000000000000000000090605102200001800280000000002237024245P101022000000004500023706690  000000000000000000000000000000000000000000000000000000000000000000000000006500000000003850000000000000000000000000000   061022             00000000000000                                                                  000104
1020244601800014700000090275100014370                         000000000223702424680000000000000000000000000906051022000018002900000000022370242468101022000000004500034107759  000000000000000000000000000000000000000000000000000000000000000000000000006500000000003850000000000000000000000000000   061022             00000000000000                                                                  000105
1020244601800014700000090275100014370                         000000000223702424840000000000000000000000000906051022000018005500000000022370242484101022000000004500023706690  000000000000000000000000000000000000000000000000000000000000000000000000006500000000003850000000000000000000000000000   061022             00000000000000                                                                  000106
1020244601800014700000090275100014370                         000000000223702425140000000000000000000000000906051022000018007500000000022370242514101022000000004500023701542  000000000000000000000000000000000000000000000000000000000000000000000000006500000000003850000000000000000000000000000   061022             00000000000000                                                                  000107
1020244601800014700000090275100014370                         000000000223702425810000000000000000000000000906051022000018009500000000022370242581101022000000004500003303367  000000000000000000000000000000000000000000000000000000000000000000000000006500000000003850000000000000000000000000000   061022             00000000000000                                                                  000108
1020244601800014700000090275100014370                         000000000223702426030000000000000000000000000906051022000018009900000000022370242603101022000000004500023702921  000000000000000000000000000000000000000000000000000000000000000000000000006500000000003850000000000000000000000000000   061022             00000000000000                                                                  000109
1020244601800014700000090275100014370                         000000000223702426110000000000000000000000000906051022000018010100000000022370242611101022000000004500023701542  000000000000000000000000000000000000000000000000000000000000000000000000006500000000003850000000000000000000000000000   061022             00000000000000                                                                  000110
1020244601800014700000090275100014370                         0000000002237024262P000000000000000000000000090605102200001801020000000002237024262P101022000000004500003303386  000000000000000000000000000000000000000000000000000000000000000000000000006500000000003850000000000000000000000000000   061022             00000000000000                                                                  000111
1020244601800014700000090275100014370                         000000000223702427350000000000000000000000000906051022000018015400000000022370242735101022000000004500023706728  000000000000000000000000000000000000000000000000000000000000000000000000006500000000003850000000000000000000000000000   061022             00000000000000                                                                  000112
1020244601800014700000090275100014370                         000000000223702427940000000000000000000000000906051022000018016700000000022370242794101022000000005250023703860  000000000000000000000000000000000000000000000000000000000000000000000000006500000000004600000000000000000000000000000   061022             00000000000000                                                                  000113
1020244601800014700000090275100014370                         000000000223702428080000000000000000000000000906051022000018016800000000022370242808101022000000005250003303386  000000000000000000000000000000000000000000000000000000000000000000000000006500000000004600000000000000000000000000000   061022             00000000000000                                                                  000114
1020244601800014700000090275100014370                         000000000223702428750000000000000000000000000906051022000018018600000000022370242875101022000000005250023700552  000000000000000000000000000000000000000000000000000000000000000000000000006500000000004600000000000000000000000000000   061022             00000000000000                                                                  000115
1020244601800014700000090275100014370                         000000000223702429480000000000000000000000000906051022000018021000000000022370242948101022000000004500026000001  000000000000000000000000000000000000000000000000000000000000000000000000006500000000003850000000000000000000000000000   061022             00000000000000                                                                  000116
1020244601800014700000090275100014370                         000000000223702429800000000000000000000000000906051022000018023300000000022370242980101022000000005250023706735  000000000000000000000000000000000000000000000000000000000000000000000000006500000000004600000000000000000000000000000   061022             00000000000000                                                                  000117
1020244601800014700000090275100014370                         000000000223702430220000000000000000000000000906051022000018023900000000022370243022101022000000005250023700473  000000000000000000000000000000000000000000000000000000000000000000000000006500000000004600000000000000000000000000000   061022             00000000000000                                                                  000118
1020244601800014700000090275100014370                         000000000223702430810000000000000000000000000906051022000018025100000000022370243081101022000000005250023703431  000000000000000000000000000000000000000000000000000000000000000000000000006500000000004600000000000000000000000000000   061022             00000000000000                                                                  000119
1020244601800014700000090275100014370                         0000000002237024312P000000000000000000000000090605102200001802600000000002237024312P101022000000005727323700955  000000000000000000000000000000000000000000000000000000000000000000000000007091000000005018200000000000000000000000000   061022             00000000000000                                                                  000120
1020244601800014700000090275100014370                         000000000223702431620000000000000000000000000906051022000018030100000000022370243162101022000000004500003303454  000000000000000000000000000000000000000000000000000000000000000000000000006500000000003850000000000000000000000000000   061022             00000000000000                                                                  000121
1020244601800014700000090275100014370                         000000000223702431890000000000000000000000000906051022000018031900000000022370243189101022000000005250023701700  000000000000000000000000000000000000000000000000000000000000000000000000006500000000004600000000000000000000000000000   061022             00000000000000                                                                  000122
1020244601800014700000090275100014370                         000000000223702432190000000000000000000000000906051022000018032600000000022370243219101022000000004500003304652  000000000000000000000000000000000000000000000000000000000000000000000000006500000000003850000000000000000000000000000   061022             00000000000000                                                                  000123
1020244601800014700000090275100014370                         000000000223702432430000000000000000000000000906051022000019000100000000022370243243101022000000004500023702751  000000000000000000000000000000000000000000000000000000000000000000000000006500000000003850000000000000000000000000000   061022             00000000000000                                                                  000124
1020244601800014700000090275100014370                         000000000223702432780000000000000000000000000906051022000019000800000000022370243278101022000000004500023700868  000000000000000000000000000000000000000000000000000000000000000000000000006500000000003850000000000000000000000000000   061022             00000000000000                                                                  000125
1020244601800014700000090275100014370                         000000000223702432940000000000000000000000000906051022000019001100000000022370243294101022000000004500026000001  000000000000000000000000000000000000000000000000000000000000000000000000006500000000003850000000000000000000000000000   061022             00000000000000                                                                  000126
1020244601800014700000090275100014370                         000000000223702433080000000000000000000000000906051022000019001200000000022370243308101022000000004500007700001  000000000000000000000000000000000000000000000000000000000000000000000000006500000000003850000000000000000000000000000   061022             00000000000000                                                                  000127
1020244601800014700000090275100014370                         000000000223702434640000000000000000000000000906051022000019003800000000022370243464101022000000005250003303451  000000000000000000000000000000000000000000000000000000000000000000000000006500000000004600000000000000000000000000000   061022             00000000000000                                                                  000128
1020244601800014700000090275100014370                         000000000223702435100000000000000000000000000906051022000019004600000000022370243510101022000000005250034104878  000000000000000000000000000000000000000000000000000000000000000000000000006500000000004600000000000000000000000000000   061022             00000000000000                                                                  000129
1020244601800014700000090275100014370                         000000000223702435450000000000000000000000000906051022000019006800000000022370243545101022000000003750003301528  000000000000000000000000000000000000000000000000000000000000000000000000004000000000003350000000000000000000000000000   061022             00000000000000                                                                  000130
1020244601800014700000090275100014370                         000000000223702435530000000000000000000000000906051022000019007100000000022370243553101022000000005250003304257  000000000000000000000000000000000000000000000000000000000000000000000000006500000000004600000000000000000000000000000   061022             00000000000000                                                                  000131
1020244601800014700000090275100014370                         000000000223702436420000000000000000000000000906051022000019010800000000022370243642101022000000005250034107499  000000000000000000000000000000000000000000000000000000000000000000000000006500000000004600000000000000000000000000000   061022             00000000000000                                                                  000132
1020244601800014700000090275100014370                         000000000223702437310000000000000000000000000906051022000019013800000000022370243731101022000000004500023702079  000000000000000000000000000000000000000000000000000000000000000000000000006500000000003850000000000000000000000000000   061022             00000000000000                                                                  000133
1020244601800014700000090275100014370                         000000000223702437900000000000000000000000000906051022000021320100000000022370243790101022000000005250003301670  000000000000000000000000000000000000000000000000000000000000000000000000006500000000004600000000000000000000000000000   061022             00000000000000                                                                  000134
1020244601800014700000090275100014370                         000000000223702438120000000000000000000000000906051022000022265100000000022370243812101022000000005250034105577  000000000000000000000000000000000000000000000000000000000000000000000000006500000000004600000000000000000000000000000   061022             00000000000000                                                                  000135
1020244601800014700000090275100014370                         000000000223702438200000000000000000000000000906051022000022651300000000022370243820101022000000005250026000001  000000000000000000000000000000000000000000000000000000000000000000000000006500000000004600000000000000000000000000000   061022             00000000000000                                                                  000136
1020244601800014700000090275100014370                         000000000223702439010000000000000000000000000906051022000031321100000000022370243901101022000000004500063400019  000000000000000000000000000000000000000000000000000000000000000000000000006500000000003850000000000000000000000000000   061022             00000000000000                                                                  000137
1020244601800014700000090275100014370                         000000000223702439440000000000000000000000000906051022000041321200000000022370243944101022000000004500026000001  000000000000000000000000000000000000000000000000000000000000000000000000006500000000003850000000000000000000000000000   061022             00000000000000                                                                  000138
1020244601800014700000090275100014370                         000000000223702439600000000000000000000000000906051022000046516500000000022370243960101022000000003750023702379  000000000000000000000000000000000000000000000000000000000000000000000000004000000000003350000000000000000000000000000   061022             00000000000000                                                                  000139
1020244601800014700000090275100014370                         000000000223702440020000000000000000000000000906051022000052653900000000022370244002101022000000004500034107450  000000000000000000000000000000000000000000000000000000000000000000000000006500000000003850000000000000000000000000000   061022             00000000000000                                                                  000140
1020244601800014700000090275100014370                         000000000223702440450000000000000000000000000906051022000056132100000000022370244045101022000000005250023702912  000000000000000000000000000000000000000000000000000000000000000000000000006500000000004600000000000000000000000000000   061022             00000000000000                                                                  000141
1020244601800014700000090275100014370                         000000000223702440610000000000000000000000000906051022000056545600000000022370244061101022000000004500010403358  000000000000000000000000000000000000000000000000000000000000000000000000006500000000003850000000000000000000000000000   061022             00000000000000                                                                  000142
1020244601800014700000090275100014370                         0000000002237024407P000000000000000000000000090605102200005829360000000002237024407P101022000000005250003301072  000000000000000000000000000000000000000000000000000000000000000000000000006500000000004600000000000000000000000000000   061022             00000000000000                                                                  000143
1020244601800014700000090275100014370                         000000000223702440880000000000000000000000000906051022000058415600000000022370244088101022000000004500023700868  000000000000000000000000000000000000000000000000000000000000000000000000006500000000003850000000000000000000000000000   061022             00000000000000                                                                  000144
1020244601800014700000090275100014370                         0000000002237024410P000000000000000000000000090605102200006123120000000002237024410P101022000000004500000100127  000000000000000000000000000000000000000000000000000000000000000000000000006500000000003850000000000000000000000000000   061022             00000000000000                                                                  000145
1020244601800014700000090275100014370                         000000000223702442070000000000000000000000000906051022000065121200000000022370244207101022000000003750023701542  000000000000000000000000000000000000000000000000000000000000000000000000004000000000003350000000000000000000000000000   061022             00000000000000                                                                  000146
1020244601800014700000090275100014370                         000000000223702442900000000000000000000000000906051022000065165100000000022370244290101022000000004500023703431  000000000000000000000000000000000000000000000000000000000000000000000000006500000000003850000000000000000000000000000   061022             00000000000000                                                                  000147
1020244601800014700000090275100014370                         000000000223702443120000000000000000000000000906051022000065232100000000022370244312101022000000004500023702912  000000000000000000000000000000000000000000000000000000000000000000000000006500000000003850000000000000000000000000000   061022             00000000000000                                                                  000148
1020244601800014700000090275100014370                         000000000223702443470000000000000000000000000906051022000066123300000000022370244347101022000000003750023703871  000000000000000000000000000000000000000000000000000000000000000000000000004000000000003350000000000000000000000000000   061022             00000000000000                                                                  000149
1020244601800014700000090275100014370                         000000000223702444010000000000000000000000000906051022000094514100000000022370244401101022000000005250003300976  000000000000000000000000000000000000000000000000000000000000000000000000006500000000004600000000000000000000000000000   061022             00000000000000                                                                  000150
1020244601800014700000090275100014370                         000000000223702444440000000000000000000000000906051022000098655600000000022370244444101022000000004500023706728  000000000000000000000000000000000000000000000000000000000000000000000000006500000000003850000000000000000000000000000   061022             00000000000000                                                                  000151
1020244601800014700000090275100014370                         000000000223702444520000000000000000000000000906051022000099563200000000022370244452101022000000004500023706735  000000000000000000000000000000000000000000000000000000000000000000000000006500000000003850000000000000000000000000000   061022             00000000000000                                                                  000152
1020244601800014700000090275100014370                         000000000223702079800000000000000000000000000906061022000002632100000000022370207980100922000000004500010400198  000000000000000000000000000000000000000000000000000000000000000000000000000000000000004629000000000012900000000000000   071022             00000000000000                                                                  000153
1020244601800014700000090275100014370                         000000000223702301920000000000000000000000000906061022000099995200000000022370230192100922000000005250034107177  000000000000000000000000000000000000000000000000000000000000000000000000000000000000005399200000000014920000000000000   071022             00000000000000                                                                  000154
1020244601800014700000090275100014370                         000000000223702317410000000000000000000000000906061022000000096500000000022370231741100922000000004090903304384  000000000000000000000000000000000000000000000000000000000000000000000000000000000000004206500000000011560000000000000   071022             00000000000000                                                                  000155
1020244601800014700000090275100014370                         000000000223702413210000000000000000000000000906061022000000000300000000022370241321101022000000005250063300001  000000000000000000000000000000000000000000000000000000000000000000000000000000000000005250000000000000000000000000000   071022             00000000000000                                                                  000156
1020244601800014700000090275100014370                         000000000223702428320000000000000000000000000906061022000018017300000000022370242832101022000000005250034102582  000000000000000000000000000000000000000000000000000000000000000000000000000000000000005250000000000000000000000000000   071022             00000000000000                                                                  000157
1020244601800014700000090275100014370                         000000000223702438390000000000000000000000000906061022000025874500000000022370243839101022000000004500003301670  000000000000000000000000000000000000000000000000000000000000000000000000000000000000004500000000000000000000000000000   071022             00000000000000                                                                  000158
1020244601800014700000090275100014370                         000000000223702441690000000000000000000000000906061022000062956200000000022370244169101022000000005727334107333  000000000000000000000000000000000000000000000000000000000000000000000000000000000000005727300000000000000000000000000   071022             00000000000000                                                                  000159
1020244601800014700000090275100014370                         000000000223702441850000000000000000000000000906061022000065102300000000022370244185101022000000005250034103752  000000000000000000000000000000000000000000000000000000000000000000000000000000000000005250000000000000000000000000000   071022             00000000000000                                                                  000160
1020244601800014700000090275100014370                         000000000223702003900000000000000000000000000906071022000018019600000000022370200390101122000000005250000100258  000000000000000000000000000000000000000000000000000000000000000000000000006500000000004600000000000000000000000000000   101022             00000000000000                                                                  000161
1020244601800014700000090275100014370                         0000000002237020051P000000000000000000000000090607102200001111110000000002237020051P101122000000004500000100258  000000000000000000000000000000000000000000000000000000000000000000000000006500000000003850000000000000000000000000000   101022             00000000000000                                                                  000162
1020244601800014700000090275100014370                         000000000223702414100000000000000000000000000906071022000000061200000000022370241410101022000000005727334107641  000000000000000000000000000000000000000000000000000000000000000000000000007091000000005018200000000000000000000000000   101022             00000000000000                                                                  000163
1020244601800014700000090275100014370                         0000000002237024150P000000000000000000000000090607102200000022260000000002237024150P101022000000005250026000001  000000000000000000000000000000000000000000000000000000000000000000000000000000000000005250000000000000000000000000000   101022             00000000000000                                                                  000164
1020244601800014700000090275100014370                         000000000223702420690000000000000000000000000906071022000006123000000000022370242069101022000000005250010404148  000000000000000000000000000000000000000000000000000000000000000000000000000000000000005250000000000000000000000000000   101022             00000000000000                                                                  000165
1020244601800014700000090275100014370                         000000000223702441340000000000000000000000000906071022000061665100000000022370244134101022000000003750003301682  000000000000000000000000000000000000000000000000000000000000000000000000000000000000003750000000000000000000000000000   101022             00000000000000                                                                  000166
1020244601800014700000090275100014370                         000000000223702420850000000000000000000000000906101022000006123300000000022370242085101022000000003750034105577  000000000000000000000000000000000000000000000000000000000000000000000000000000000000003750000000000000000000000000000   111022             00000000000000                                                                  000167
1020244601800014700000090275100014370                         000000000223702428400000000000000000000000000906101022000018017500000000022370242840101022000000005250023702014  000000000000000000000000000000000000000000000000000000000000000000000000000000000000005250000000000000000000000000000   111022             00000000000000                                                                  000168
1020244601800014700000090275100014370                         000000000223702438980000000000000000000000000906101022000031032000000000022370243898101022000000004500026000001  000000000000000000000000000000000000000000000000000000000000000000000000000000000000004500000000000000000000000000000   111022             00000000000000                                                                  000169
1020244601800014700000090275100014370                         000000000223701981670000000000000000000000000910101022000019007800000000022370198167100822000000005250023700000  000000000000000000000000000000000000000000000000000000000000000000000000000000000000000000000000000000000000000000000                          1600000000                                                                  000170
1020244601800014700000090275100014370                         000000000223701982800000000000000000000000000910101022000019007700000000022370198280100822000000004500023700000  000000000000000000000000000000000000000000000000000000000000000000000000000000000000000000000000000000000000000000000                          1600000000                                                                  000171
1020244601800014700000090275100014370                         000000000223701985310000000000000000000000000910101022000018008300000000022370198531100822000000004500023700000  000000000000000000000000000000000000000000000000000000000000000000000000000000000000000000000000000000000000000000000                          1600000000                                                                  000172
1020244601800014700000090275100014370                         000000000223701986550000000000000000000000000910101022000000212100000000022370198655100822000000005250023700000  000000000000000000000000000000000000000000000000000000000000000000000000000000000000000000000000000000000000000000000                          1600000000                                                                  000173
1020244601800014700000090275100014370                         000000000223701990230000000000000000000000000910101022000011125200000000022370199023100822000000004500023700000  000000000000000000000000000000000000000000000000000000000000000000000000000000000000000000000000000000000000000000000                          1600000000                                                                  000174
1020244601800014700000090275100014370                         000000000223701991550000000000000000000000000910101022000018019500000000022370199155100822000000004500023700000  000000000000000000000000000000000000000000000000000000000000000000000000000000000000000000000000000000000000000000000                          1600000000                                                                  000175
1020244601800014700000090275100014370                         000000000223702002420000000000000000000000000910101022000019001500000000022370200242100822000000004500023700000  000000000000000000000000000000000000000000000000000000000000000000000000000000000000000000000000000000000000000000000                          1600000000                                                                  000176
1020244601800014700000090275100014370                         000000000223702006090000000000000000000000000910101022000018023500000000022370200609100822000000005250023700000  000000000000000000000000000000000000000000000000000000000000000000000000000000000000000000000000000000000000000000000                          1600000000                                                                  000177
1020244601800014700000090275100014370                         000000000223702007220000000000000000000000000910101022000019010900000000022370200722100822000000004500023700000  000000000000000000000000000000000000000000000000000000000000000000000000000000000000000000000000000000000000000000000                          1600000000                                                                  000178
1020244601800014700000090275100014370                         0000000002237020096P000000000000000000000000091010102200000321320000000002237020096P100822000000003750023700000  000000000000000000000000000000000000000000000000000000000000000000000000000000000000000000000000000000000000000000000                          1600000000                                                                  000179
1020244601800014700000090275100014370                         000000000223702016990000000000000000000000000910101022000019013900000000022370201699100822000000004500023700000  000000000000000000000000000000000000000000000000000000000000000000000000000000000000000000000000000000000000000000000                          1600000000                                                                  000180
1020244601800014700000090275100014370                         000000000223702018180000000000000000000000000910101022000000457100000000022370201818100822000000005250023700000  000000000000000000000000000000000000000000000000000000000000000000000000000000000000000000000000000000000000000000000                          1600000000                                                                  000181
1020244601800014700000090275100014370                         000000000223702019310000000000000000000000000910101022000054121500000000022370201931100822000000005250023700000  000000000000000000000000000000000000000000000000000000000000000000000000000000000000000000000000000000000000000000000                          1600000000                                                                  000182
1020244601800014700000090275100014370                         000000000223702021720000000000000000000000000910101022000000946100000000022370202172100822000000004500023700000  000000000000000000000000000000000000000000000000000000000000000000000000000000000000000000000000000000000000000000000                          1600000000                                                                  000183
1020244601800014700000090275100014370                         000000000223702027760000000000000000000000000910101022000018009700000000022370202776100822000000004500023700000  000000000000000000000000000000000000000000000000000000000000000000000000000000000000000000000000000000000000000000000                          1600000000                                                                  000184
1020244601800014700000090275100014370                         000000000223702044500000000000000000000000000910101022000064648500000000022370204450100822000000004500023700000  000000000000000000000000000000000000000000000000000000000000000000000000000000000000000000000000000000000000000000000                          1600000000                                                                  000185
1020244601800014700000090275100014370                         000000000223702046980000000000000000000000000910101022000009846100000000022370204698100822000000005250023700000  000000000000000000000000000000000000000000000000000000000000000000000000000000000000000000000000000000000000000000000                          1600000000                                                                  000186
1020244601800014700000090275100014370                         000000000223702048170000000000000000000000000910101022000018022400000000022370204817100822000000005250023700000  000000000000000000000000000000000000000000000000000000000000000000000000000000000000000000000000000000000000000000000                          1600000000                                                                  000187
1020244601800014700000090275100014370                         000000000223702051710000000000000000000000000910101022000019000200000000022370205171100822000000004500023700000  000000000000000000000000000000000000000000000000000000000000000000000000000000000000000000000000000000000000000000000                          1600000000                                                                  000188
1020244601800014700000090275100014370                         000000000223702052950000000000000000000000000910101022000002116500000000022370205295100822000000004500023700000  000000000000000000000000000000000000000000000000000000000000000000000000000000000000000000000000000000000000000000000                          1600000000                                                                  000189
1020244601800014700000090275100014370                         000000000223702056510000000000000000000000000910101022000018009200000000022370205651100822000000004500023700000  000000000000000000000000000000000000000000000000000000000000000000000000000000000000000000000000000000000000000000000                          1600000000                                                                  000190
1020244601800014700000090275100014370                         000000000223702057750000000000000000000000000910101022000019003200000000022370205775100822000000004500023700000  000000000000000000000000000000000000000000000000000000000000000000000000000000000000000000000000000000000000000000000                          1600000000                                                                  000191
1020244601800014700000090275100014370                         000000000223702062590000000000000000000000000910101022000019003500000000022370206259100822000000005250023700000  000000000000000000000000000000000000000000000000000000000000000000000000000000000000000000000000000000000000000000000                          1600000000                                                                  000192
1020244601800014700000090275100014370                         000000000223702073790000000000000000000000000910101022000019012700000000022370207379100822000000004500023700000  000000000000000000000000000000000000000000000000000000000000000000000000000000000000000000000000000000000000000000000                          1600000000                                                                  000193
1020244601800014700000090275100014370                         0000000002237020809P000000000000000000000000091010102200000223020000000002237020809P100822000000005250023700000  000000000000000000000000000000000000000000000000000000000000000000000000000000000000000000000000000000000000000000000                          1600000000                                                                  000194
1020244601800014700000090275100014370                         000000000223702082190000000000000000000000000910101022000018024100000000022370208219100822000000005250023700000  000000000000000000000000000000000000000000000000000000000000000000000000000000000000000000000000000000000000000000000                          1600000000                                                                  000195
1020244601800014700000090275100014370                         000000000223702083400000000000000000000000000910101022000061320200000000022370208340100822000000004500023700000  000000000000000000000000000000000000000000000000000000000000000000000000000000000000000000000000000000000000000000000                          1600000000                                                                  000196
1020244601800014700000090275100014370                         000000000223702088200000000000000000000000000910101022000018017500000000022370208820100822000000005250023700000  000000000000000000000000000000000000000000000000000000000000000000000000000000000000000000000000000000000000000000000                          1600000000                                                                  000197
1020244601800014700000090275100014370                         000000000223702095410000000000000000000000000910101022000099997800000000022370209541100822000000005250023700000  000000000000000000000000000000000000000000000000000000000000000000000000000000000000000000000000000000000000000000000                          1600000000                                                                  000198
1020244601800014700000090275100014370                         000000000223702099080000000000000000000000000910101022000018011800000000022370209908100822000000004500023700000  000000000000000000000000000000000000000000000000000000000000000000000000000000000000000000000000000000000000000000000                          1600000000                                                                  000199
1020244601800014700000090275100014370                         000000000223702100270000000000000000000000000910101022000018006300000000022370210027100822000000004500023700000  000000000000000000000000000000000000000000000000000000000000000000000000000000000000000000000000000000000000000000000                          1600000000                                                                  000200
1020244601800014700000090275100014370                         000000000223702107440000000000000000000000000910101022000018008900000000022370210744100822000000004500023700000  000000000000000000000000000000000000000000000000000000000000000000000000000000000000000000000000000000000000000000000                          1600000000                                                                  000201
1020244601800014700000090275100014370                         000000000223702108680000000000000000000000000910101022000019000700000000022370210868100822000000004500023700000  000000000000000000000000000000000000000000000000000000000000000000000000000000000000000000000000000000000000000000000                          1600000000                                                                  000202
1020244601800014700000090275100014370                         000000000223702109810000000000000000000000000910101022000018007200000000022370210981100822000000004500023700000  000000000000000000000000000000000000000000000000000000000000000000000000000000000000000000000000000000000000000000000                          1600000000                                                                  000203
1020244601800014700000090275100014370                         000000000223702123050000000000000000000000000910101022000003512100000000022370212305100822000000003750023700000  000000000000000000000000000000000000000000000000000000000000000000000000000000000000000000000000000000000000000000000                          1600000000                                                                  000204
1020244601800014700000090275100014370                         000000000223702125420000000000000000000000000910101022000021000000000000022370212542100822000000003750023700000  000000000000000000000000000000000000000000000000000000000000000000000000000000000000000000000000000000000000000000000                          1600000000                                                                  000205
1020244601800014700000090275100014370                         000000000223702126660000000000000000000000000910101022000019006600000000022370212666100822000000004500023700000  000000000000000000000000000000000000000000000000000000000000000000000000000000000000000000000000000000000000000000000                          1600000000                                                                  000206
1020244601800014700000090275100014370                         0000000002237021278P000000000000000000000000091010102200001900370000000002237021278P100822000000004500023700000  000000000000000000000000000000000000000000000000000000000000000000000000000000000000000000000000000000000000000000000                          1600000000                                                                  000207
1020244601800014700000090275100014370                         000000000223702132630000000000000000000000000910101022000000484800000000022370213263100822000000004500023700000  000000000000000000000000000000000000000000000000000000000000000000000000000000000000000000000000000000000000000000000                          1600000000                                                                  000208
1020244601800014700000090275100014370                         000000000223702133870000000000000000000000000910101022000018024000000000022370213387100822000000005250023700000  000000000000000000000000000000000000000000000000000000000000000000000000000000000000000000000000000000000000000000000                          1600000000                                                                  000209
1020244601800014700000090275100014370                         000000000223702142270000000000000000000000000910101022000065162100000000022370214227100822000000004500023700000  000000000000000000000000000000000000000000000000000000000000000000000000000000000000000000000000000000000000000000000                          1600000000                                                                  000210
1020244601800014700000090275100014370                         000000000223702147070000000000000000000000000910101022000018018100000000022370214707100822000000005250023700000  000000000000000000000000000000000000000000000000000000000000000000000000000000000000000000000000000000000000000000000                          1600000000                                                                  000211
1020244601800014700000090275100014370                         000000000223702155410000000000000000000000000910101022000006511300000000022370215541100822000000005250023700000  000000000000000000000000000000000000000000000000000000000000000000000000000000000000000000000000000000000000000000000                          1600000000                                                                  000212
1020244601800014700000090275100014370                         000000000223702156650000000000000000000000000910101022000000448400000000022370215665100822000000005250023700000  000000000000000000000000000000000000000000000000000000000000000000000000000000000000000000000000000000000000000000000                          1600000000                                                                  000213
1020244601800014700000090275100014370                         000000000223702161490000000000000000000000000910101022000000546500000000022370216149100822000000005250023700000  000000000000000000000000000000000000000000000000000000000000000000000000000000000000000000000000000000000000000000000                          1600000000                                                                  000214
1020244601800014700000090275100014370                         000000000223702163860000000000000000000000000910101022000000012300000000022370216386100822000000004500023700000  000000000000000000000000000000000000000000000000000000000000000000000000000000000000000000000000000000000000000000000                          1600000000                                                                  000215
1020244601800014700000090275100014370                         000000000223702165050000000000000000000000000910101022000026613200000000022370216505100822000000003750023700000  000000000000000000000000000000000000000000000000000000000000000000000000000000000000000000000000000000000000000000000                          1600000000                                                                  000216
1020244601800014700000090275100014370                         000000000223702177060000000000000000000000000910101022000000611200000000022370217706100822000000003750023700000  000000000000000000000000000000000000000000000000000000000000000000000000000000000000000000000000000000000000000000000                          1600000000                                                                  000217
1020244601800014700000090275100014370                         000000000223702180600000000000000000000000000910101022000003203200000000022370218060100822000000003750023700000  000000000000000000000000000000000000000000000000000000000000000000000000000000000000000000000000000000000000000000000                          1600000000                                                                  000218
1020244601800014700000090275100014370                         000000000223702183030000000000000000000000000910101022000000323200000000022370218303100822000000005250023700000  000000000000000000000000000000000000000000000000000000000000000000000000000000000000000000000000000000000000000000000                          1600000000                                                                  000219
1020244601800014700000090275100014370                         000000000223702189070000000000000000000000000910101022000018012200000000022370218907100822000000004500023700000  000000000000000000000000000000000000000000000000000000000000000000000000000000000000000000000000000000000000000000000                          1600000000                                                                  000220
1020244601800014700000090275100014370                         000000000223702196280000000000000000000000000910101022000052635200000000022370219628100822000000004500023700000  000000000000000000000000000000000000000000000000000000000000000000000000000000000000000000000000000000000000000000000                          1600000000                                                                  000221
1020244601800014700000090275100014370                         000000000223702199890000000000000000000000000910101022000099997400000000022370219989100822000000005250023700000  000000000000000000000000000000000000000000000000000000000000000000000000000000000000000000000000000000000000000000000                          1600000000                                                                  000222
1020244601800014700000090275100014370                         000000000223702202270000000000000000000000000910101022000018014200000000022370220227100822000000004500023700000  000000000000000000000000000000000000000000000000000000000000000000000000000000000000000000000000000000000000000000000                          1600000000                                                                  000223
1020244601800014700000090275100014370                         000000000223702204640000000000000000000000000910101022000019013800000000022370220464100822000000004500023700000  000000000000000000000000000000000000000000000000000000000000000000000000000000000000000000000000000000000000000000000                          1600000000                                                                  000224
1020244601800014700000090275100014370                         000000000223702213040000000000000000000000000910101022000018012600000000022370221304100822000000004500023700000  000000000000000000000000000000000000000000000000000000000000000000000000000000000000000000000000000000000000000000000                          1600000000                                                                  000225
1020244601800014700000090275100014370                         000000000223702216650000000000000000000000000910101022000018026600000000022370221665100822000000005250023700000  000000000000000000000000000000000000000000000000000000000000000000000000000000000000000000000000000000000000000000000                          1600000000                                                                  000226
1020244601800014700000090275100014370                         000000000223702219080000000000000000000000000910101022000000623200000000022370221908100822000000005250023700000  000000000000000000000000000000000000000000000000000000000000000000000000000000000000000000000000000000000000000000000                          1600000000                                                                  000227
1020244601800014700000090275100014370                         000000000223702223860000000000000000000000000910101022000065145600000000022370222386100822000000005250023700000  000000000000000000000000000000000000000000000000000000000000000000000000000000000000000000000000000000000000000000000                          1600000000                                                                  000228
1020244601800014700000090275100014370                         000000000223702225050000000000000000000000000910101022000006546100000000022370222505100822000000005250023700000  000000000000000000000000000000000000000000000000000000000000000000000000000000000000000000000000000000000000000000000                          1600000000                                                                  000229
1020244601800014700000090275100014370                         000000000223702226290000000000000000000000000910101022000018025800000000022370222629100822000000005250023700000  000000000000000000000000000000000000000000000000000000000000000000000000000000000000000000000000000000000000000000000                          1600000000                                                                  000230
1020244601800014700000090275100014370                         000000000223702227420000000000000000000000000910101022000018009400000000022370222742100822000000004500023700000  000000000000000000000000000000000000000000000000000000000000000000000000000000000000000000000000000000000000000000000                          1600000000                                                                  000231
1020244601800014700000090275100014370                         000000000223702228660000000000000000000000000910101022000019014300000000022370222866100822000000005250023700000  000000000000000000000000000000000000000000000000000000000000000000000000000000000000000000000000000000000000000000000                          1600000000                                                                  000232
1020244601800014700000090275100014370                         0000000002237022298P000000000000000000000000091010102200008458450000000002237022298P100822000000004500023700000  000000000000000000000000000000000000000000000000000000000000000000000000000000000000000000000000000000000000000000000                          1600000000                                                                  000233
1020244601800014700000090275100014370                         000000000223702234630000000000000000000000000910101022000019000800000000022370223463100822000000004500023700000  000000000000000000000000000000000000000000000000000000000000000000000000000000000000000000000000000000000000000000000                          1600000000                                                                  000234
1020244601800014700000090275100014370                         0000000002237022382P000000000000000000000000091010102200001900720000000002237022382P100822000000003750023700000  000000000000000000000000000000000000000000000000000000000000000000000000000000000000000000000000000000000000000000000                          1600000000                                                                  000235
1020244601800014700000090275100014370                         000000000223702244270000000000000000000000000910101022000000003100000000022370224427100822000000003750023700000  000000000000000000000000000000000000000000000000000000000000000000000000000000000000000000000000000000000000000000000                          1600000000                                                                  000236
1020244601800014700000090275100014370                         000000000223702247880000000000000000000000000910101022000006259600000000022370224788100822000000005250023700000  000000000000000000000000000000000000000000000000000000000000000000000000000000000000000000000000000000000000000000000                          1600000000                                                                  000237
1020244601800014700000090275100014370                         000000000223702249070000000000000000000000000910101022000000598200000000022370224907100822000000003750023700000  000000000000000000000000000000000000000000000000000000000000000000000000000000000000000000000000000000000000000000000                          1600000000                                                                  000238
1020244601800014700000090275100014370                         000000000223702265860000000000000000000000000910101022000019013100000000022370226586100822000000004500023700000  000000000000000000000000000000000000000000000000000000000000000000000000000000000000000000000000000000000000000000000                          1600000000                                                                  000239
1020244601800014700000090275100014370                         000000000223702267050000000000000000000000000910101022000099998500000000022370226705100822000000004500023700000  000000000000000000000000000000000000000000000000000000000000000000000000000000000000000000000000000000000000000000000                          1600000000                                                                  000240
1020244601800014700000090275100014370                         000000000223702268290000000000000000000000000910101022000006515600000000022370226829100822000000003750023700000  000000000000000000000000000000000000000000000000000000000000000000000000000000000000000000000000000000000000000000000                          1600000000                                                                  000241
1020244601800014700000090275100014370                         000000000223702274260000000000000000000000000910101022000062654600000000022370227426100822000000003750023700000  000000000000000000000000000000000000000000000000000000000000000000000000000000000000000000000000000000000000000000000                          1600000000                                                                  000242
1020244601800014700000090275100014370                         000000000223702276630000000000000000000000000910101022000006513200000000022370227663100822000000004500023700000  000000000000000000000000000000000000000000000000000000000000000000000000000000000000000000000000000000000000000000000                          1600000000                                                                  000243
1020244601800014700000090275100014370                         000000000223702277870000000000000000000000000910101022000099788000000000022370227787100822000000004500023700000  000000000000000000000000000000000000000000000000000000000000000000000000000000000000000000000000000000000000000000000                          1600000000                                                                  000244
1020244601800014700000090275100014370                         000000000223702279060000000000000000000000000910101022000006223200000000022370227906100822000000004500023700000  000000000000000000000000000000000000000000000000000000000000000000000000000000000000000000000000000000000000000000000                          1600000000                                                                  000245
1020244601800014700000090275100014370                         000000000223702280230000000000000000000000000910101022000019002700000000022370228023100822000000004500023700000  000000000000000000000000000000000000000000000000000000000000000000000000000000000000000000000000000000000000000000000                          1600000000                                                                  000246
1020244601800014700000090275100014370                         000000000223702285030000000000000000000000000910101022000006123000000000022370228503100822000000005250023700000  000000000000000000000000000000000000000000000000000000000000000000000000000000000000000000000000000000000000000000000                          1600000000                                                                  000247
1020244601800014700000090275100014370                         000000000223702286270000000000000000000000000910101022000018025600000000022370228627100822000000005250023700000  000000000000000000000000000000000000000000000000000000000000000000000000000000000000000000000000000000000000000000000                          1600000000                                                                  000248
1020244601800014700000090275100014370                         000000000223702295850000000000000000000000000910101022000018015200000000022370229585100822000000004500023700000  000000000000000000000000000000000000000000000000000000000000000000000000000000000000000000000000000000000000000000000                          1600000000                                                                  000249
